{
  "_format": "hh-sol-artifact-1",
  "contractName": "TouristIDRegistry",
  "sourceName": "contracts/TouristIDRegistry.sol",
  "abi": [
    {
      "inputs": [],
      "stateMutability": "nonpayable",
      "type": "constructor"
    },
    {
      "anonymous": false,
      "inputs": [
        {
          "indexed": false,
          "internalType": "bytes32",
          "name": "credentialHash",
          "type": "bytes32"
        },
        {
          "indexed": false,
          "internalType": "address",
          "name": "issuer",
          "type": "address"
        },
        {
          "indexed": false,
          "internalType": "uint256",
          "name": "timestamp",
          "type": "uint256"
        }
      ],
      "name": "CredentialAnchored",
      "type": "event"
    },
    {
      "anonymous": false,
      "inputs": [
        {
          "indexed": false,
          "internalType": "address",
          "name": "issuer",
          "type": "address"
        },
        {
          "indexed": false,
          "internalType": "bool",
          "name": "trusted",
          "type": "bool"
        }
      ],
      "name": "IssuerTrusted",
      "type": "event"
    },
    {
      "anonymous": false,
      "inputs": [
        {
          "indexed": false,
          "internalType": "string",
          "name": "userId",
          "type": "string"
        },
        {
          "indexed": false,
          "internalType": "string",
          "name": "aadhar",
          "type": "string"
        },
        {
          "indexed": false,
          "internalType": "string",
          "name": "passport",
          "type": "string"
        },
        {
          "indexed": false,
          "internalType": "string",
          "name": "name",
          "type": "string"
        },
        {
          "indexed": false,
          "internalType": "string",
          "name": "gender",
          "type": "string"
        },
        {
          "indexed": false,
          "internalType": "uint8",
          "name": "age",
          "type": "uint8"
        },
        {
          "indexed": false,
          "internalType": "string",
          "name": "nationality",
          "type": "string"
        },
        {
          "indexed": false,
          "internalType": "string",
          "name": "destination",
          "type": "string"
        },
        {
          "indexed": false,
          "internalType": "address",
          "name": "issuer",
          "type": "address"
        }
      ],
      "name": "UserRegistered",
      "type": "event"
    },
    {
      "inputs": [
        {
          "internalType": "bytes32",
          "name": "credentialHash",
          "type": "bytes32"
        }
      ],
      "name": "anchorCredential",
      "outputs": [],
      "stateMutability": "nonpayable",
      "type": "function"
    },
    {
      "inputs": [
        {
          "internalType": "bytes32",
          "name": "",
          "type": "bytes32"
        }
      ],
      "name": "credentialAnchor",
      "outputs": [
        {
          "internalType": "address",
          "name": "",
          "type": "address"
        }
      ],
      "stateMutability": "view",
      "type": "function"
    },
    {
      "inputs": [
        {
          "internalType": "bytes32",
          "name": "credentialHash",
          "type": "bytes32"
        }
      ],
      "name": "getCredentialIssuer",
      "outputs": [
        {
          "internalType": "address",
          "name": "",
          "type": "address"
        }
      ],
      "stateMutability": "view",
      "type": "function"
    },
    {
      "inputs": [
        {
          "internalType": "string",
          "name": "aadhar",
          "type": "string"
        }
      ],
      "name": "getUserByAadhar",
      "outputs": [
        {
          "internalType": "string",
          "name": "userId",
          "type": "string"
        },
        {
          "internalType": "string",
          "name": "passport",
          "type": "string"
        },
        {
          "internalType": "string",
          "name": "name",
          "type": "string"
        },
        {
          "internalType": "string",
          "name": "gender",
          "type": "string"
        },
        {
          "internalType": "uint8",
          "name": "age",
          "type": "uint8"
        },
        {
          "internalType": "string",
          "name": "nationality",
          "type": "string"
        },
        {
          "internalType": "string",
          "name": "destination",
          "type": "string"
        },
        {
          "internalType": "address",
          "name": "issuer",
          "type": "address"
        }
      ],
      "stateMutability": "view",
      "type": "function"
    },
    {
      "inputs": [
        {
          "internalType": "string",
          "name": "userId",
          "type": "string"
        }
      ],
      "name": "getUserById",
      "outputs": [
        {
          "internalType": "string",
          "name": "",
          "type": "string"
        },
        {
          "internalType": "string",
          "name": "passport",
          "type": "string"
        },
        {
          "internalType": "string",
          "name": "name",
          "type": "string"
        },
        {
          "internalType": "string",
          "name": "gender",
          "type": "string"
        },
        {
          "internalType": "uint8",
          "name": "age",
          "type": "uint8"
        },
        {
          "internalType": "string",
          "name": "nationality",
          "type": "string"
        },
        {
          "internalType": "string",
          "name": "destination",
          "type": "string"
        },
        {
          "internalType": "address",
          "name": "issuer",
          "type": "address"
        }
      ],
      "stateMutability": "view",
      "type": "function"
    },
    {
      "inputs": [],
      "name": "owner",
      "outputs": [
        {
          "internalType": "address",
          "name": "",
          "type": "address"
        }
      ],
      "stateMutability": "view",
      "type": "function"
    },
    {
      "inputs": [
        {
          "internalType": "string",
          "name": "aadhar",
          "type": "string"
        },
        {
          "internalType": "string",
          "name": "passport",
          "type": "string"
        },
        {
          "internalType": "string",
          "name": "name",
          "type": "string"
        },
        {
          "internalType": "string",
          "name": "gender",
          "type": "string"
        },
        {
          "internalType": "uint8",
          "name": "age",
          "type": "uint8"
        },
        {
          "internalType": "bytes32",
          "name": "passwordHash",
          "type": "bytes32"
        },
        {
          "internalType": "string",
          "name": "nationality",
          "type": "string"
        },
        {
          "internalType": "string",
          "name": "destination",
          "type": "string"
        }
      ],
      "name": "registerUser",
      "outputs": [],
      "stateMutability": "nonpayable",
      "type": "function"
    },
    {
      "inputs": [
        {
          "internalType": "address",
          "name": "issuer",
          "type": "address"
        },
        {
          "internalType": "bool",
          "name": "trusted",
          "type": "bool"
        }
      ],
      "name": "setTrustedIssuer",
      "outputs": [],
      "stateMutability": "nonpayable",
      "type": "function"
    },
    {
      "inputs": [
        {
          "internalType": "address",
          "name": "",
          "type": "address"
        }
      ],
      "name": "trustedIssuer",
      "outputs": [
        {
          "internalType": "bool",
          "name": "",
          "type": "bool"
        }
      ],
      "stateMutability": "view",
      "type": "function"
    },
    {
      "inputs": [
        {
          "internalType": "string",
          "name": "aadhar",
          "type": "string"
        },
        {
          "internalType": "bytes32",
          "name": "passwordHash",
          "type": "bytes32"
        }
      ],
      "name": "verifyPassword",
      "outputs": [
        {
          "internalType": "bool",
          "name": "",
          "type": "bool"
        }
      ],
      "stateMutability": "view",
      "type": "function"
    }
  ],
  "bytecode": "0x6080604052600160055534801561001557600080fd5b50336000806101000a81548173ffffffffffffffffffffffffffffffffffffffff021916908373ffffffffffffffffffffffffffffffffffffffff160217905550612645806100656000396000f3fe608060405234801561001057600080fd5b506004361061009e5760003560e01c806385ac97a21161006657806385ac97a2146101795780638b0e6288146101a95780638da5cb5b146101c557806392930dcb146101e3578063d432e8bb146102135761009e565b806312d49197146100a3578063379f8fc2146100bf5780633e3879ac146100f65780634586cf71146101125780635a32721914610142575b600080fd5b6100bd60048036038101906100b89190611756565b610243565b005b6100d960048036038101906100d491906118c9565b610446565b6040516100ed9897969594939291906119ee565b60405180910390f35b610110600480360381019061010b9190611ac2565b610a35565b005b61012c60048036038101906101279190611c20565b610dec565b6040516101399190611c97565b60405180910390f35b61015c600480360381019061015791906118c9565b610e1a565b6040516101709897969594939291906119ee565b60405180910390f35b610193600480360381019061018e9190611cde565b611315565b6040516101a09190611c97565b60405180910390f35b6101c360048036038101906101be9190611d37565b611335565b005b6101cd611457565b6040516101da9190611d77565b60405180910390f35b6101fd60048036038101906101f89190611756565b61147b565b60405161020a9190611d77565b60405180910390f35b61022d60048036038101906102289190611756565b6114ae565b60405161023a9190611d77565b60405180910390f35b600160003373ffffffffffffffffffffffffffffffffffffffff1673ffffffffffffffffffffffffffffffffffffffff16815260200190815260200160002060009054906101000a900460ff166102cf576040517f08c379a00000000000000000000000000000000000000000000000000000000081526004016102c690611dde565b60405180910390fd5b6000801b8103610314576040517f08c379a000000000000000000000000000000000000000000000000000000000815260040161030b90611e4a565b60405180910390fd5b600073ffffffffffffffffffffffffffffffffffffffff166002600083815260200190815260200160002060009054906101000a900473ffffffffffffffffffffffffffffffffffffffff1673ffffffffffffffffffffffffffffffffffffffff16146103b6576040517f08c379a00000000000000000000000000000000000000000000000000000000081526004016103ad90611eb6565b60405180910390fd5b336002600083815260200190815260200160002060006101000a81548173ffffffffffffffffffffffffffffffffffffffff021916908373ffffffffffffffffffffffffffffffffffffffff1602179055507f6175b04d68794f2857f394688801d761e647f3149b406ebf2df387db9115851481334260405161043b93929190611efe565b60405180910390a150565b606080606080600060608060008060048a6040516104649190611f71565b9081526020016040518091039020805461047d90611fb7565b80601f01602080910402602001604051908101604052809291908181526020018280546104a990611fb7565b80156104f65780601f106104cb576101008083540402835291602001916104f6565b820191906000526020600020905b8154815290600101906020018083116104d957829003601f168201915b50505050509050600060038260405161050f9190611f71565b90815260200160405180910390206040518061014001604052908160008201805461053990611fb7565b80601f016020809104026020016040519081016040528092919081815260200182805461056590611fb7565b80156105b25780601f10610587576101008083540402835291602001916105b2565b820191906000526020600020905b81548152906001019060200180831161059557829003601f168201915b505050505081526020016001820180546105cb90611fb7565b80601f01602080910402602001604051908101604052809291908181526020018280546105f790611fb7565b80156106445780601f1061061957610100808354040283529160200191610644565b820191906000526020600020905b81548152906001019060200180831161062757829003601f168201915b5050505050815260200160028201805461065d90611fb7565b80601f016020809104026020016040519081016040528092919081815260200182805461068990611fb7565b80156106d65780601f106106ab576101008083540402835291602001916106d6565b820191906000526020600020905b8154815290600101906020018083116106b957829003601f168201915b505050505081526020016003820180546106ef90611fb7565b80601f016020809104026020016040519081016040528092919081815260200182805461071b90611fb7565b80156107685780601f1061073d57610100808354040283529160200191610768565b820191906000526020600020905b81548152906001019060200180831161074b57829003601f168201915b5050505050815260200160048201805461078190611fb7565b80601f01602080910402602001604051908101604052809291908181526020018280546107ad90611fb7565b80156107fa5780601f106107cf576101008083540402835291602001916107fa565b820191906000526020600020905b8154815290600101906020018083116107dd57829003601f168201915b505050505081526020016005820160009054906101000a900460ff1660ff1660ff1681526020016006820154815260200160078201805461083a90611fb7565b80601f016020809104026020016040519081016040528092919081815260200182805461086690611fb7565b80156108b35780601f10610888576101008083540402835291602001916108b3565b820191906000526020600020905b81548152906001019060200180831161089657829003601f168201915b505050505081526020016008820180546108cc90611fb7565b80601f01602080910402602001604051908101604052809291908181526020018280546108f890611fb7565b80156109455780601f1061091a57610100808354040283529160200191610945565b820191906000526020600020905b81548152906001019060200180831161092857829003601f168201915b505050505081526020016009820160009054906101000a900473ffffffffffffffffffffffffffffffffffffffff1673ffffffffffffffffffffffffffffffffffffffff1673ffffffffffffffffffffffffffffffffffffffff168152505090506000816000015151036109ee576040517f08c379a00000000000000000000000000000000000000000000000000000000081526004016109e590612034565b60405180910390fd5b80600001518160400151826060015183608001518460a001518560e00151866101000151876101200151995099509950995099509950995099505050919395975091939597565b600160003373ffffffffffffffffffffffffffffffffffffffff1673ffffffffffffffffffffffffffffffffffffffff16815260200190815260200160002060009054906101000a900460ff16610ac1576040517f08c379a0000000000000000000000000000000000000000000000000000000008152600401610ab890611dde565b60405180910390fd5b6000885111610b05576040517f08c379a0000000000000000000000000000000000000000000000000000000008152600401610afc906120a0565b60405180910390fd5b6000875111610b49576040517f08c379a0000000000000000000000000000000000000000000000000000000008152600401610b409061210c565b60405180910390fd5b6000600389604051610b5b9190611f71565b90815260200160405180910390206001018054610b7790611fb7565b905014610bb9576040517f08c379a0000000000000000000000000000000000000000000000000000000008152600401610bb090612178565b60405180910390fd5b6000610bc66005546114eb565b905060056000815480929190610bdb906121c7565b91905055506040518061014001604052808281526020018a81526020018981526020018881526020018781526020018660ff1681526020018581526020018481526020018381526020013373ffffffffffffffffffffffffffffffffffffffff1681525060038a604051610c4f9190611f71565b90815260200160405180910390206000820151816000019081610c7291906123bb565b506020820151816001019081610c8891906123bb565b506040820151816002019081610c9e91906123bb565b506060820151816003019081610cb491906123bb565b506080820151816004019081610cca91906123bb565b5060a08201518160050160006101000a81548160ff021916908360ff16021790555060c0820151816006015560e0820151816007019081610d0b91906123bb565b50610100820151816008019081610d2291906123bb565b506101208201518160090160006101000a81548173ffffffffffffffffffffffffffffffffffffffff021916908373ffffffffffffffffffffffffffffffffffffffff16021790555090505088600482604051610d7f9190611f71565b90815260200160405180910390209081610d9991906123bb565b507f807e5a8cb5dd02cbe191a7122f3c08957ea4722d7dd85d5cb4101c25a7d4906a818a8a8a8a8a898933604051610dd99998979695949392919061248d565b60405180910390a1505050505050505050565b600081600384604051610dff9190611f71565b90815260200160405180910390206006015414905092915050565b606080606080600060608060008060038a604051610e389190611f71565b908152602001604051809103902060405180610140016040529081600082018054610e6290611fb7565b80601f0160208091040260200160405190810160405280929190818152602001828054610e8e90611fb7565b8015610edb5780601f10610eb057610100808354040283529160200191610edb565b820191906000526020600020905b815481529060010190602001808311610ebe57829003601f168201915b50505050508152602001600182018054610ef490611fb7565b80601f0160208091040260200160405190810160405280929190818152602001828054610f2090611fb7565b8015610f6d5780601f10610f4257610100808354040283529160200191610f6d565b820191906000526020600020905b815481529060010190602001808311610f5057829003601f168201915b50505050508152602001600282018054610f8690611fb7565b80601f0160208091040260200160405190810160405280929190818152602001828054610fb290611fb7565b8015610fff5780601f10610fd457610100808354040283529160200191610fff565b820191906000526020600020905b815481529060010190602001808311610fe257829003601f168201915b5050505050815260200160038201805461101890611fb7565b80601f016020809104026020016040519081016040528092919081815260200182805461104490611fb7565b80156110915780601f1061106657610100808354040283529160200191611091565b820191906000526020600020905b81548152906001019060200180831161107457829003601f168201915b505050505081526020016004820180546110aa90611fb7565b80601f01602080910402602001604051908101604052809291908181526020018280546110d690611fb7565b80156111235780601f106110f857610100808354040283529160200191611123565b820191906000526020600020905b81548152906001019060200180831161110657829003601f168201915b505050505081526020016005820160009054906101000a900460ff1660ff1660ff1681526020016006820154815260200160078201805461116390611fb7565b80601f016020809104026020016040519081016040528092919081815260200182805461118f90611fb7565b80156111dc5780601f106111b1576101008083540402835291602001916111dc565b820191906000526020600020905b8154815290600101906020018083116111bf57829003601f168201915b505050505081526020016008820180546111f590611fb7565b80601f016020809104026020016040519081016040528092919081815260200182805461122190611fb7565b801561126e5780601f106112435761010080835404028352916020019161126e565b820191906000526020600020905b81548152906001019060200180831161125157829003601f168201915b505050505081526020016009820160009054906101000a900473ffffffffffffffffffffffffffffffffffffffff1673ffffffffffffffffffffffffffffffffffffffff1673ffffffffffffffffffffffffffffffffffffffff1681525050905080600001518160400151826060015183608001518460a001518560e001518661010001518761012001519850985098509850985098509850985050919395975091939597565b60016020528060005260406000206000915054906101000a900460ff1681565b60008054906101000a900473ffffffffffffffffffffffffffffffffffffffff1673ffffffffffffffffffffffffffffffffffffffff163373ffffffffffffffffffffffffffffffffffffffff16146113c3576040517f08c379a00000000000000000000000000000000000000000000000000000000081526004016113ba90612597565b60405180910390fd5b80600160008473ffffffffffffffffffffffffffffffffffffffff1673ffffffffffffffffffffffffffffffffffffffff16815260200190815260200160002060006101000a81548160ff0219169083151502179055507f70ad5afa57b424b1d3c08960c9534cccf4e3da0784991efa388b0535e56dd98e828260405161144b9291906125b7565b60405180910390a15050565b60008054906101000a900473ffffffffffffffffffffffffffffffffffffffff1681565b60026020528060005260406000206000915054906101000a900473ffffffffffffffffffffffffffffffffffffffff1681565b60006002600083815260200190815260200160002060009054906101000a900473ffffffffffffffffffffffffffffffffffffffff169050919050565b6060600060016114fa846115b9565b01905060008167ffffffffffffffff8111156115195761151861179e565b5b6040519080825280601f01601f19166020018201604052801561154b5781602001600182028036833780820191505090505b509050600082602083010190505b6001156115ae578080600190039150507f3031323334353637383961626364656600000000000000000000000000000000600a86061a8153600a85816115a2576115a16125e0565b5b04945060008503611559575b819350505050919050565b600080600090507a184f03e93ff9f4daa797ed6e38ed64bf6a1f0100000000000000008310611617577a184f03e93ff9f4daa797ed6e38ed64bf6a1f010000000000000000838161160d5761160c6125e0565b5b0492506040810190505b6d04ee2d6d415b85acef81000000008310611654576d04ee2d6d415b85acef8100000000838161164a576116496125e0565b5b0492506020810190505b662386f26fc10000831061168357662386f26fc100008381611679576116786125e0565b5b0492506010810190505b6305f5e10083106116ac576305f5e10083816116a2576116a16125e0565b5b0492506008810190505b61271083106116d15761271083816116c7576116c66125e0565b5b0492506004810190505b606483106116f457606483816116ea576116e96125e0565b5b0492506002810190505b600a8310611703576001810190505b80915050919050565b6000604051905090565b600080fd5b600080fd5b6000819050919050565b61173381611720565b811461173e57600080fd5b50565b6000813590506117508161172a565b92915050565b60006020828403121561176c5761176b611716565b5b600061177a84828501611741565b91505092915050565b600080fd5b600080fd5b6000601f19601f8301169050919050565b7f4e487b7100000000000000000000000000000000000000000000000000000000600052604160045260246000fd5b6117d68261178d565b810181811067ffffffffffffffff821117156117f5576117f461179e565b5b80604052505050565b600061180861170c565b905061181482826117cd565b919050565b600067ffffffffffffffff8211156118345761183361179e565b5b61183d8261178d565b9050602081019050919050565b82818337600083830152505050565b600061186c61186784611819565b6117fe565b90508281526020810184848401111561188857611887611788565b5b61189384828561184a565b509392505050565b600082601f8301126118b0576118af611783565b5b81356118c0848260208601611859565b91505092915050565b6000602082840312156118df576118de611716565b5b600082013567ffffffffffffffff8111156118fd576118fc61171b565b5b6119098482850161189b565b91505092915050565b600081519050919050565b600082825260208201905092915050565b60005b8381101561194c578082015181840152602081019050611931565b60008484015250505050565b600061196382611912565b61196d818561191d565b935061197d81856020860161192e565b6119868161178d565b840191505092915050565b600060ff82169050919050565b6119a781611991565b82525050565b600073ffffffffffffffffffffffffffffffffffffffff82169050919050565b60006119d8826119ad565b9050919050565b6119e8816119cd565b82525050565b6000610100820190508181036000830152611a09818b611958565b90508181036020830152611a1d818a611958565b90508181036040830152611a318189611958565b90508181036060830152611a458188611958565b9050611a54608083018761199e565b81810360a0830152611a668186611958565b905081810360c0830152611a7a8185611958565b9050611a8960e08301846119df565b9998505050505050505050565b611a9f81611991565b8114611aaa57600080fd5b50565b600081359050611abc81611a96565b92915050565b600080600080600080600080610100898b031215611ae357611ae2611716565b5b600089013567ffffffffffffffff811115611b0157611b0061171b565b5b611b0d8b828c0161189b565b985050602089013567ffffffffffffffff811115611b2e57611b2d61171b565b5b611b3a8b828c0161189b565b975050604089013567ffffffffffffffff811115611b5b57611b5a61171b565b5b611b678b828c0161189b565b965050606089013567ffffffffffffffff811115611b8857611b8761171b565b5b611b948b828c0161189b565b9550506080611ba58b828c01611aad565b94505060a0611bb68b828c01611741565b93505060c089013567ffffffffffffffff811115611bd757611bd661171b565b5b611be38b828c0161189b565b92505060e089013567ffffffffffffffff811115611c0457611c0361171b565b5b611c108b828c0161189b565b9150509295985092959890939650565b60008060408385031215611c3757611c36611716565b5b600083013567ffffffffffffffff811115611c5557611c5461171b565b5b611c618582860161189b565b9250506020611c7285828601611741565b9150509250929050565b60008115159050919050565b611c9181611c7c565b82525050565b6000602082019050611cac6000830184611c88565b92915050565b611cbb816119cd565b8114611cc657600080fd5b50565b600081359050611cd881611cb2565b92915050565b600060208284031215611cf457611cf3611716565b5b6000611d0284828501611cc9565b91505092915050565b611d1481611c7c565b8114611d1f57600080fd5b50565b600081359050611d3181611d0b565b92915050565b60008060408385031215611d4e57611d4d611716565b5b6000611d5c85828601611cc9565b9250506020611d6d85828601611d22565b9150509250929050565b6000602082019050611d8c60008301846119df565b92915050565b7f6e6f742061207472757374656420697373756572000000000000000000000000600082015250565b6000611dc860148361191d565b9150611dd382611d92565b602082019050919050565b60006020820190508181036000830152611df781611dbb565b9050919050565b7f696e76616c696420686173680000000000000000000000000000000000000000600082015250565b6000611e34600c8361191d565b9150611e3f82611dfe565b602082019050919050565b60006020820190508181036000830152611e6381611e27565b9050919050565b7f616c726561647920616e63686f72656400000000000000000000000000000000600082015250565b6000611ea060108361191d565b9150611eab82611e6a565b602082019050919050565b60006020820190508181036000830152611ecf81611e93565b9050919050565b611edf81611720565b82525050565b6000819050919050565b611ef881611ee5565b82525050565b6000606082019050611f136000830186611ed6565b611f2060208301856119df565b611f2d6040830184611eef565b949350505050565b600081905092915050565b6000611f4b82611912565b611f558185611f35565b9350611f6581856020860161192e565b80840191505092915050565b6000611f7d8284611f40565b915081905092915050565b7f4e487b7100000000000000000000000000000000000000000000000000000000600052602260045260246000fd5b60006002820490506001821680611fcf57607f821691505b602082108103611fe257611fe1611f88565b5b50919050565b7f75736572206e6f7420666f756e64000000000000000000000000000000000000600082015250565b600061201e600e8361191d565b915061202982611fe8565b602082019050919050565b6000602082019050818103600083015261204d81612011565b9050919050565b7f6161646861722072657175697265640000000000000000000000000000000000600082015250565b600061208a600f8361191d565b915061209582612054565b602082019050919050565b600060208201905081810360008301526120b98161207d565b9050919050565b7f70617373706f7274207265717569726564000000000000000000000000000000600082015250565b60006120f660118361191d565b9150612101826120c0565b602082019050919050565b60006020820190508181036000830152612125816120e9565b9050919050565b7f7573657220616c72656164792065786973747300000000000000000000000000600082015250565b600061216260138361191d565b915061216d8261212c565b602082019050919050565b6000602082019050818103600083015261219181612155565b9050919050565b7f4e487b7100000000000000000000000000000000000000000000000000000000600052601160045260246000fd5b60006121d282611ee5565b91507fffffffffffffffffffffffffffffffffffffffffffffffffffffffffffffffff820361220457612203612198565b5b600182019050919050565b60008190508160005260206000209050919050565b60006020601f8301049050919050565b600082821b905092915050565b6000600883026122717fffffffffffffffffffffffffffffffffffffffffffffffffffffffffffffffff82612234565b61227b8683612234565b95508019841693508086168417925050509392505050565b6000819050919050565b60006122b86122b36122ae84611ee5565b612293565b611ee5565b9050919050565b6000819050919050565b6122d28361229d565b6122e66122de826122bf565b848454612241565b825550505050565b600090565b6122fb6122ee565b6123068184846122c9565b505050565b5b8181101561232a5761231f6000826122f3565b60018101905061230c565b5050565b601f82111561236f576123408161220f565b61234984612224565b81016020851015612358578190505b61236c61236485612224565b83018261230b565b50505b505050565b600082821c905092915050565b600061239260001984600802612374565b1980831691505092915050565b60006123ab8383612381565b9150826002028217905092915050565b6123c482611912565b67ffffffffffffffff8111156123dd576123dc61179e565b5b6123e78254611fb7565b6123f282828561232e565b600060209050601f8311600181146124255760008415612413578287015190505b61241d858261239f565b865550612485565b601f1984166124338661220f565b60005b8281101561245b57848901518255600182019150602085019450602081019050612436565b868310156124785784890151612474601f891682612381565b8355505b6001600288020188555050505b505050505050565b60006101208201905081810360008301526124a8818c611958565b905081810360208301526124bc818b611958565b905081810360408301526124d0818a611958565b905081810360608301526124e48189611958565b905081810360808301526124f88188611958565b905061250760a083018761199e565b81810360c08301526125198186611958565b905081810360e083015261252d8185611958565b905061253d6101008301846119df565b9a9950505050505050505050565b7f6f6e6c79206f776e657200000000000000000000000000000000000000000000600082015250565b6000612581600a8361191d565b915061258c8261254b565b602082019050919050565b600060208201905081810360008301526125b081612574565b9050919050565b60006040820190506125cc60008301856119df565b6125d96020830184611c88565b9392505050565b7f4e487b7100000000000000000000000000000000000000000000000000000000600052601260045260246000fdfea26469706673582212206f92919af1f4b3413973c1065458778d1a22f2a1d54ecc9b0c293a727881498764736f6c63430008140033",
  "linkReferences": {},
  "deployedLinkReferences": {}
}